:100000000C9435010C9466010C9466010C94660105
:100010000C9466010C9466010C9466010C946601C4
:100020000C9466010C9466010C9466010C946601B4
:100030000C9466010C9466010C9466010C946601A4
:100040000C9466010C9466010C9466010C94660194
:100050000C9466010C9466010C9466010C94EB03FD
:100060000C9466010C945F040C9435040C946601A6
:100070000C9466010C9466010C9466010C94660164
:100080000C9466010C9466010C9466010C94660154
:100090000C9466010C9466010C9466010C94660144
:1000A0000C9466010C9466010C9466010C94660134
:1000B0000C9466010C9466010C9466010C94660124
:1000C0000C9466010C9466010C9466010C94660114
:1000D0000C9466010C9466010C9466010C94660104
:1000E0000C9466010C9477020C9419020C9455023E
:1000F0000C94CE010C94D2010C94BE010C94FC0221
:100100000C94DC010C94EA010C94B7010C94D60118
:100110000C94B3010C94EE010C94C8010C94BB0137
:100120000C9446020C94DA040C9498010C94C401CB
:100130000C9469020C94AF020C94AF010C94E00192
:100140000C949D010C94E40100000A0B02090C0DB3
:100150000E0807030401000000000000000000007A
:10016000000000000000000000000000000000008F
:10017000000000001211100000000000000000004C
:10018000000000000000000000000000000000006F
:1001900020002300260029002C002F00320000013F
:1001A00000000301060109010000220025002800CB
:1001B0002B002E003100340002010000050108016F
:1001C0000B0100002100240027002A002D00300030
:1001D000330001010000040107010A0105050505BE
:1001E000070508080808020202020A0A08080404AF
:1001F00004040101010101010101030303030303DD
:100200000303040707070C0C0C0C0C0C0C0C02026B
:10021000020206060606060606060B0B0B0B0B0B68
:100220000B0B0102102020080810204010204080F5
:1002300002010201080402010102040810204080AA
:100240008040201008040201800402018040201038
:100250000804020108040201010204081020408081
:100260000102040810204080DA0411241FBECFEFE1
:10027000D1E2DEBFCDBF00E00CBF12E0A0E0B2E0F3
:10028000E6EEF2E100E00BBF02C007900D92A6314E
:10029000B107D9F722E0A6E1B2E001C01D92AC3C63
:1002A000B207E1F711E0C5E3D1E000E006C0219715
:1002B0000109802FFE010E946909C433D10780E043
:1002C0000807A9F70E9470050C9471090C940000AE
:1002D000282F30E0F901E85BFE4F9491F901EE5DC3
:1002E000FD4F449124523E4FF9012491222309F4F9
:1002F00035C0992311F191509231F8F4E92FF0E0D3
:100300008827EA57FE4F8F4F0C946909B701BB014C
:100310009801AF01B3019D01BE01C401C801CE0126
:10032000D201D601DC01E0019D01E401EA01EE0108
:10033000809180008F7780938000E22FF0E0EE0FB5
:10034000FF1FE855FE4FA591B4918FB7F894EC913B
:10035000611148C040954E234C938FBF0895809102
:1003600080008F7DE8CF80918000877FE4CF84B5C7
:100370008F7784BDE2CF84B58F7DFBCF8091B000B5
:100380008F778093B000D9CF8091B0008F7DF9CF67
:10039000809190008F7780939000CFCF80919000D4
:1003A0008F7DF9CF80919000877FF5CF8091A0005D
:1003B0008F778093A000C1CF8091A0008F7DF9CF6F
:1003C0008091A000877FF5CF809120018F77809367
:1003D0002001B3CF809120018F7DF9CF8091200142
:1003E000877FF5CF4E2BB8CF3FB7F894809123028B
:1003F00090912402A0912502B091260226B5A89BD7
:1004000005C02F3F19F00196A11DB11D3FBFBA2FA6
:10041000A92F982F8827BC01CD01620F711D811D66
:10042000911D42E0660F771F881F991F4A95D1F7EB
:100430000895AF92BF92CF92DF92EF92FF920F9307
:100440001F93CF93DF936C017B018B01040F151F6A
:10045000EB015E01AE18BF08C017D10759F06991D2
:10046000D601ED91FC910190F081E02DC601199526
:10047000892B79F7C501DF91CF911F910F91FF90E3
:10048000EF90DF90CF90BF90AF900895FC01538D17
:10049000448D252F30E0842F90E0821B930B54175E
:1004A00010F0CF96089501970895FC01918D828DEB
:1004B000981761F0A28DAE0FBF2FB11D5D968C9184
:1004C000928D9F5F9F73928F90E008958FEF9FEFC3
:1004D0000895FC01918D828D981731F0828DE80F7F
:1004E000F11D858D90E008958FEF9FEF0895FC0139
:1004F000918D228D892F90E0805C9F4F821B910906
:100500008F739927089587E292E00E94770221E095
:10051000892B09F420E0822F0895FC01A48DA80FF7
:10052000B92FB11DA35ABF4F2C91848D90E0019635
:100530008F739927848FA689B7892C93A089B18955
:100540008C91837080648C93938D848D981306C0F6
:100550000288F389E02D80818F7D80830895EF925A
:10056000FF920F931F93CF93DF93EC0181E0888F6D
:100570009B8D8C8D98131AC0E889F989808185FF3D
:1005800015C09FB7F894EE89FF896083E889F989DF
:1005900080818370806480839FBF81E090E0DF91E1
:1005A000CF911F910F91FF90EF900895F62E0B8D34
:1005B00010E00F5F1F4F0F731127E02E8C8D8E11EF
:1005C0000CC00FB607FCFACFE889F989808185FF56
:1005D000F5CFCE010E948D02F1CFEB8DEC0FFD2FF8
:1005E000F11DE35AFF4FF0829FB7F8940B8FEA8911
:1005F000FB8980818062CFCFCF93DF93EC01888D20
:100600008823B9F0AA89BB89E889F9898C9185FD8D
:1006100003C0808186FD0DC00FB607FCF7CF8C911B
:1006200085FFF2CF808185FFEDCFCE010E948D0244
:10063000E9CFDF91CF91089580E090E0892B29F0F8
:100640000E94830281110E94000080E090E0892BCB
:1006500049F080E090E0892B29F00E940000811190
:100660000E94000080E090E0892B49F080E090E05B
:10067000892B29F00E94000081110E94000080E077
:1006800090E0892B49F080E090E0892B29F00E94CE
:10069000000081110C9400000895CF92DF92EF9238
:1006A000FF920F931F9360E08091C4020E94680143
:1006B00083E090E00197F1F761E08091C4020E942D
:1006C000680183E290E00197F1F760E08091C40255
:1006D0000E9468016091C6027091C70290E080E0BC
:1006E0000E94230820E030E040E250E40E94DA0853
:1006F0002AE23EE74CE05DE30E947B070E94F4079C
:100700008B019C018091C8029091C902A091CA02FC
:10071000B091CB020097A105B10539F08017910780
:10072000A207B30710F48C019D018091C50290E0EF
:10073000FC01EE5DFD4F6491FC01E452FE4FE4913B
:10074000F0E0EE0FFF1FE257FE4F859194913F704E
:10075000462F0E949504611571058105910529F0C8
:100760006F5F7F4F8F4F9F4F9F700E94230820E045
:1007700030E040E05FE30E94DA082AE23EE74CE026
:100780005DE30E94DA086B017C0120E030E0A90102
:100790000E947607882381F06091C6027091C7029B
:1007A00090E080E00E9423089B01AC01C701B601E4
:1007B0000E94D508181634F4C12CD12C80E8E82EFC
:1007C0008FEBF82EC701B6011F910F91FF90EF90AC
:1007D000DF90CF9008951F920F920FB60F921124C1
:1007E0002F933F938F939F93AF93BF9380911F025B
:1007F00090912002A0912102B091220230911E021C
:1008000023E0230F2D3758F50196A11DB11D20932C
:100810001E0280931F0290932002A0932102B093A6
:1008200022028091230290912402A0912502B0918E
:1008300026020196A11DB11D8093230290932402EC
:10084000A0932502B0932602BF91AF919F918F9103
:100850003F912F910F900FBE0F901F90189526E893
:10086000230F0296A11DB11DD2CF1F920F920FB67A
:100870000F9211240BB60F922F933F934F935F93D8
:100880006F937F938F939F93AF93BF93EF93FF9358
:1008900087E292E00E948D02FF91EF91BF91AF91AC
:1008A0009F918F917F916F915F914F913F912F9188
:1008B0000F900BBE0F900FBE0F901F9018951F92B8
:1008C0000F920FB60F9211240BB60F922F938F93A6
:1008D0009F93EF93FF93E0913702F091380280816C
:1008E000E0913D02F0913E0282FD1DC09081809119
:1008F00040028F5F8F7320914102821741F0E09197
:100900004002F0E0E95DFD4F958F80934002FF913A
:10091000EF919F918F912F910F900BBE0F900FBE73
:100920000F901F9018958081F2CFCF92DF92EF92B7
:10093000FF920F931F93E82FF92F05C00150110963
:100940002109310961F1908196239417B9F305C00B
:10095000015011092109310911F190819623941355
:10096000F7CFC12CD12CE12CF12C0AC08FEFC81A83
:10097000D80AE80AF80A0C151D052E053F0579F07E
:1009800080818623841791F36C2D7D2D8E2D9F2DD4
:100990001F910F91FF90EF90DF90CF90089560E04E
:1009A00070E080E090E01F910F91FF90EF90DF905A
:1009B000CF900895CF93DF9310922A0210922902CC
:1009C00088EE93E0A0E0B0E080932B0290932C029D
:1009D000A0932D02B0932E0284E092E0909328021F
:1009E0008093270285EC90E0909334028093330249
:1009F00084EC90E0909336028093350280EC90E096
:100A0000909338028093370281EC90E090933A0201
:100A10008093390282EC90E090933C0280933B02F9
:100A200086EC90E090933E0280933D02109240024B
:100A300010924102109242021092430284E080938D
:100A4000C40283E08093C50280E991E09093C702DD
:100A50008093C6021092C8021092C9021092CA0274
:100A60001092CB02E6E2F2E02491E0EEF1E0849114
:100A7000882399F090E0880F991FFC01EE53FE4FF8
:100A8000A591B491FC01E855FE4F859194918FB7E3
:100A9000F894EC91E22BEC938FBFE5E2F2E0249125
:100AA000EFEDF1E084918823C1F090E0880F991F69
:100AB000FC01EE53FE4FC591D491FC01E855FE4F69
:100AC000A591B4919FB7F8948881E22FE0958E2389
:100AD00088838C91E823EC939FBFDF91CF91089599
:100AE000CF93DF93CDB7DEB7A1970FB6F894DEBFF3
:100AF0000FBECDBF789484B5826084BD84B581601B
:100B000084BD85B5826085BD85B5816085BD8091D8
:100B10006E00816080936E00109281008091810050
:100B20008260809381008091810081608093810048
:100B3000809180008160809380008091B10084600A
:100B40008093B1008091B00081608093B00080916B
:100B500091008260809391008091910081608093E8
:100B60009100809190008160809390008091A1001D
:100B700082608093A1008091A10081608093A10098
:100B80008091A00081608093A0008091210182600B
:100B900080932101809121018160809321018091C6
:100BA000200181608093200180917A00846080938D
:100BB0007A0080917A00826080937A0080917A0036
:100BC000816080937A0080917A00806880937A00B7
:100BD0001092C100E0913702F091380282E08083E8
:100BE000E0913302F09134021082E0913502F091ED
:100BF00036028FEC808310923F02E0913B02F0912D
:100C00003C0286E08083E0913902F0913A028081D3
:100C100080618083E0913902F0913A02808188609E
:100C20008083E0913902F0913A028081806880836C
:100C3000E0913902F0913A0280818F7D80830E9499
:100C40004D0360931A0270931B0280931C029093D1
:100C50001D026093160270931702809318029093FE
:100C600019029AE0892E912CA12CB12C0E944D03DF
:100C70006B017C01AC019B0160911A0270911B0217
:100C800080911C0290911D020E94760787FF08C088
:100C9000C0921A02D0921B02E0921C02F0921D0236
:100CA000A7019601609116027091170280911802B7
:100CB000909119020E94D508181644F4C0921602A9
:100CC000D0921702E0921802F09219024090160298
:100CD000509017026090180270901902A3019201BF
:100CE000C701B6010E9409076B017C01A3019201B3
:100CF00060911A0270911B0280911C0290911D025A
:100D00000E9409079B01AC01C701B6010E947B0745
:100D100020E030E04EEF52E40E94DA080E94ED0736
:100D20006B01770FEE08FF08F7FE5DC06DE287E20A
:100D300092E00E94AF0222273327A9012C193D0916
:100D40004E095F0919A2CE0181967C01CA01B90141
:100D5000A50194010E944709605DF70162937F013C
:100D6000211531054105510589F7E114F10461F0C0
:100D700001900020E9F73197AF014E195F09B701E3
:100D800087E292E00E94190242E050E062E172E0E4
:100D900087E292E00E9419020E94F4012B013C01BB
:100DA0008AE0C82ED12CE12CF12C0E94F4016419A8
:100DB000750986099709683E734081059105A8F376
:100DC000F1E0CF1AD108E108F10828EE420E23E045
:100DD000521E611C711CC114D104E104F10429F7F5
:100DE0000E941C0343CFA701960119A2CE01819650
:100DF0007C01CA01B901A50194010E944709605D07
:100E0000F70162937F01211531054105510589F7ED
:100E1000ACCF5058BB27AA270E9421070C949B08EF
:100E20000E948D0838F00E94940820F039F49F3F0A
:100E300019F426F40C948A080EF4E095E7FB0C9460
:100E40008408E92F0E94AC0858F3BA1762077307A9
:100E50008407950720F079F4A6F50C94CE080EF4DB
:100E6000E0950B2EBA2FA02D0B01B90190010C01BA
:100E7000CA01A0011124FF27591B99F0593F50F4D2
:100E8000503E68F11A16F040A22F232F342F44272A
:100E9000585FF3CF469537952795A795F040539522
:100EA000C9F77EF41F16BA0B620B730B840BBAF0F2
:100EB0009150A1F0FF0FBB1F661F771F881FC2F75D
:100EC0000EC0BA0F621F731F841F48F48795779571
:100ED0006795B795F7959E3F08F0B0CF9395880F2B
:100EE00008F09927EE0F9795879508950E9460085E
:100EF00008F481E008950E948F070C949B080E94DB
:100F0000940858F00E948D0840F029F45F3F29F0C2
:100F10000C94840851110C94CF080C948A080E94F8
:100F2000AC0868F39923B1F3552391F3951B550B46
:100F3000BB27AA2762177307840738F09F5F5F4FAC
:100F4000220F331F441FAA1FA9F335D00E2E3AF0EB
:100F5000E0E832D091505040E695001CCAF72BD003
:100F6000FE2F29D0660F771F881FBB1F2617370754
:100F70004807AB07B0E809F0BB0B802DBF01FF2786
:100F800093585F4F3AF09E3F510578F00C948408D7
:100F90000C94CF085F3FE4F3983ED4F386957795A1
:100FA0006795B795F7959F5FC9F7880F911D96953F
:100FB000879597F90895E1E0660F771F881FBB1F9B
:100FC000621773078407BA0720F0621B730B840B48
:100FD000BA0BEE1F88F7E09508950E94F407689415
:100FE000B1110C94CF0808950E94B40888F09F575F
:100FF00098F0B92F9927B751B0F0E1F0660F771F3D
:10100000881F991F1AF0BA95C9F714C0B13091F032
:101010000E94CE08B1E008950C94CE08672F782F77
:101020008827B85F39F0B93FCCF3869577956795F7
:10103000B395D9F73EF490958095709561957F4F63
:101040008F4F9F4F0895E89409C097FB3EF4909509
:101050008095709561957F4F8F4F9F4F9923A9F091
:10106000F92F96E9BB279395F69587957795679520
:10107000B795F111F8CFFAF4BB0F11F460FF1BC064
:101080006F5F7F4F8F4F9F4F16C0882311F096E9F7
:1010900011C0772321F09EE8872F762F05C06623A5
:1010A00071F096E8862F70E060E02AF09A95660F5E
:1010B000771F881FDAF7880F9695879597F9089517
:1010C000990F0008550FAA0BE0E8FEEF1616170659
:1010D000E807F907C0F012161306E407F50798F0C1
:1010E000621B730B840B950B39F40A2661F0232BDA
:1010F000242B252B21F408950A2609F4A140A69556
:101100008FEF811D811D089597F99F6780E870E03A
:1011100060E008959FEF80EC089500240A9416166D
:10112000170618060906089500240A9412161306D5
:10113000140605060895092E0394000C11F4882363
:1011400052F0BB0F40F4BF2B11F460FF04C06F5F7F
:101150007F4F8F4F9F4F089557FD9058440F551F55
:1011600059F05F3F71F04795880F97FB991F61F029
:101170009F3F79F087950895121613061406551FA0
:10118000F2CF4695F1DF08C0161617061806991F0C
:10119000F1CF86957105610508940895E894BB2701
:1011A00066277727CB0197F908950E94600808F415
:1011B0008FEF08950E94ED080C949B080E948D0803
:1011C00038F00E94940820F0952311F00C948408C4
:1011D0000C948A0811240C94CF080E94AC0870F378
:1011E000959FC1F3950F50E0551F629FF001729FCC
:1011F000BB27F00DB11D639FAA27F00DB11DAA1FDB
:10120000649F6627B00DA11D661F829F2227B00D27
:10121000A11D621F739FB00DA11D621F839FA00DB2
:10122000611D221F749F3327A00D611D231F849F02
:10123000600D211D822F762F6A2F11249F57504059
:101240009AF0F1F088234AF0EE0FFF1FBB1F661FD4
:10125000771F881F91505040A9F79E3F510580F09D
:101260000C9484080C94CF085F3FE4F3983ED4F3C9
:10127000869577956795B795F795E7959F5FC1F741
:10128000FE2B880F911D9695879597F90895A1E2F9
:101290001A2EAA1BBB1BFD010DC0AA1FBB1FEE1FF0
:1012A000FF1FA217B307E407F50720F0A21BB30B3B
:1012B000E40BF50B661F771F881F991F1A9469F7B7
:1012C00060957095809590959B01AC01BD01CF0113
:1012D0000895EE0FFF1F881F8BBF0790F691E02D3A
:0612E0001994F894FFCF01
:1012E60000000000AF0219024602FC027702550216
:0612F60069020D0A000070
:00000001FF
