:100000000C9435010C9466010C9466010C94660105
:100010000C9466010C9466010C9466010C946601C4
:100020000C9466010C9466010C9466010C946601B4
:100030000C9466010C9466010C9466010C946601A4
:100040000C9466010C9466010C9466010C94660194
:100050000C9466010C9466010C9466010C946E0479
:100060000C9466010C94E2040C94B8040C946601A0
:100070000C9466010C9466010C9466010C94660164
:100080000C9466010C9466010C9466010C94660154
:100090000C9466010C9466010C9466010C94660144
:1000A0000C9466010C9466010C9466010C94660134
:1000B0000C9466010C9466010C9466010C94660124
:1000C0000C9466010C9466010C9466010C94660114
:1000D0000C9466010C9466010C9466010C94660104
:1000E0000C9466010C94CE010C94D2010C94BE01C8
:1000F0000C94DC010C9431030C948A020C94EA01F8
:100100000C94B7010C94D6010C94B3010C949E028C
:100110000C94EE010C94C8010C947B020C94BB016E
:100120000C945D050C9498010C944E020C94C4013F
:100130000C94AF010C94E0010C94AC020C94E4021A
:100140000C949D010C94E40100000A0B02090C0DB3
:100150000E0807030401000000000000000000007A
:10016000000000000000000000000000000000008F
:10017000000000001211100000000000000000004C
:10018000000000000000000000000000000000006F
:1001900020002300260029002C002F00320000013F
:1001A00000000301060109010000220025002800CB
:1001B0002B002E003100340002010000050108016F
:1001C0000B0100002100240027002A002D00300030
:1001D000330001010000040107010A0105050505BE
:1001E000070508080808020202020A0A08080404AF
:1001F00004040101010101010101030303030303DD
:100200000303040707070C0C0C0C0C0C0C0C02026B
:10021000020206060606060606060B0B0B0B0B0B68
:100220000B0B0102102020080810204010204080F5
:1002300002010201080402010102040810204080AA
:100240008040201008040201800402018040201038
:100250000804020108040201010204081020408081
:1002600001020408102040805D0511241FBECFEF5D
:10027000D1E2DEBFCDBF00E00CBF12E0A0E0B2E0F3
:10028000EAE8F5E100E00BBF02C007900D92A6314D
:10029000B107D9F722E0A6E1B2E001C01D92AE3F5E
:1002A000B207E1F711E0C5E3D1E000E006C0219715
:1002B0000109802FFE010E94BB0AC433D10780E0F0
:1002C0000807A9F70E94F3050C94C30A0C940000D8
:1002D000282F30E0F901E85BFE4F9491F901EE5DC3
:1002E000FD4F449124523E4FF9012491222309F4F9
:1002F00035C0992311F191509231F8F4E92FF0E0D3
:100300008827EA57FE4F8F4F0C94BB0AB701BB01F9
:100310009801AF01B3019D01BE01C401C801CE0126
:10032000D201D601DC01E0019D01E401EA01EE0108
:10033000809180008F7780938000E22FF0E0EE0FB5
:10034000FF1FE855FE4FA591B4918FB7F894EC913B
:10035000611148C040954E234C938FBF0895809102
:1003600080008F7DE8CF80918000877FE4CF84B5C7
:100370008F7784BDE2CF84B58F7DFBCF8091B000B5
:100380008F778093B000D9CF8091B0008F7DF9CF67
:10039000809190008F7780939000CFCF80919000D4
:1003A0008F7DF9CF80919000877FF5CF8091A0005D
:1003B0008F778093A000C1CF8091A0008F7DF9CF6F
:1003C0008091A000877FF5CF809120018F77809367
:1003D0002001B3CF809120018F7DF9CF8091200142
:1003E000877FF5CF4E2BB8CF3FB7F8948091550259
:1003F00090915602A0915702B091580226B5A89B41
:1004000005C02F3F19F00196A11DB11D3FBFBA2FA6
:10041000A92F982F8827BC01CD01620F711D811D66
:10042000911D42E0660F771F881F991F4A95D1F7EB
:1004300008958F929F92AF92BF92CF92DF92EF92E8
:10044000FF920E94F4014B015C018AE0C82ED12C7E
:10045000E12CF12C0E94F401681979098A099B09A1
:10046000683E734081059105A8F321E0C21AD108C6
:10047000E108F10888EE880E83E0981EA11CB11CEB
:10048000C114D104E104F10429F7FF90EF90DF904B
:10049000CF90BF90AF909F908F900895AF92BF92F2
:1004A000CF92DF92EF92FF920F931F93CF93DF9340
:1004B0006C017B018B01040F151FEB015E01AE186F
:1004C000BF08C017D10759F06991D601ED91FC9191
:1004D0000190F081E02DC6011995892B79F7C501AE
:1004E000DF91CF911F910F91FF90EF90DF90CF9010
:1004F000BF90AF900895FC01538D448D252F30E0BF
:10050000842F90E0821B930B541710F0CF96089520
:1005100001970895FC01918D828D981761F0A28D4D
:10052000AE0FBF2FB11D5D968C91928D9F5F9F7313
:10053000928F90E008958FEF9FEF0895FC01918DC9
:10054000828D981731F0828DE80FF11D858D90E036
:1005500008958FEF9FEF0895FC01918D228D892FD3
:1005600090E0805C9F4F821B91098F7399270895BB
:1005700089E592E00E94AC0221E0892B09F420E099
:10058000822F0895FC01A48DA80FB92FB11DA35A85
:10059000BF4F2C91848D90E001968F739927848FA3
:1005A000A689B7892C93A089B1898C9183708064C6
:1005B0008C93938D848D981306C00288F389E02D67
:1005C00080818F7D80830895EF92FF920F931F9318
:1005D000CF93DF93EC0181E0888F9B8D8C8D9813F6
:1005E0001AC0E889F989808185FF15C09FB7F89402
:1005F000EE89FF896083E889F9898081837080644E
:1006000080839FBF81E090E0DF91CF911F910F9198
:10061000FF90EF900895F62E0B8D10E00F5F1F4FA7
:100620000F731127E02E8C8D8E110CC00FB607FCB6
:10063000FACFE889F989808185FFF5CFCE010E9444
:10064000C202F1CFEB8DEC0FFD2FF11DE35AFF4FEE
:10065000F0829FB7F8940B8FEA89FB8980818062D2
:10066000CFCFCF93DF93EC01888D8823B9F0AA898F
:10067000BB89E889F9898C9185FD03C0808186FD5D
:100680000DC00FB607FCF7CF8C9185FFF2CF8081AC
:1006900085FFEDCFCE010E94C202E9CFDF91CF915D
:1006A000089580E090E0892B29F00E94B802811122
:1006B0000E94000080E090E0892B49F080E090E00B
:1006C000892B29F00E94000081110E94000080E027
:1006D00090E0892B49F080E090E0892B29F00E947E
:1006E000000081110E94000080E090E0892B49F019
:1006F00080E090E0892B29F00E94000081110C9489
:1007000000000895CF92DF92EF92FF920F931F9314
:1007100060E08091F6020E94680183E090E001971A
:10072000F1F761E08091F6020E94680183E290E0B7
:100730000197F1F760E08091F6020E9468016091F4
:10074000F8027091F90290E080E00E94750920E0C3
:1007500030E040E250E40E942C0A2AE23EE74CE0FE
:100760005DE30E94CD080E9446098B019C018091A7
:10077000FA029091FB02A091FC02B091FD02009759
:10078000A105B10539F080179107A207B30710F44E
:100790008C019D018091F70290E0FC01EE5DFD4F20
:1007A0006491FC01E452FE4FE491F0E0EE0FFF1F74
:1007B000E257FE4F859194913F70462F0E94180595
:1007C000611571058105910529F06F5F7F4F8F4F8E
:1007D0009F4F9F700E94750920E030E040E05FE38A
:1007E0000E942C0A2AE23EE74CE05DE30E942C0ABC
:1007F0006B017C0120E030E0A9010E94C808882339
:1008000081F06091F8027091F90290E080E00E941E
:1008100075099B01AC01C701B6010E94270A181691
:1008200034F4C12CD12C80E8E82E8FEBF82EC701D0
:10083000B6011F910F91FF90EF90DF90CF90089538
:100840008F929F92AF92BF920F931F93CF93DF939C
:10085000CDB7DEB7A1970FB6F894DEBF0FBECDBF00
:1008600019A2423008F44AE08E010F5D1F4F842E1A
:10087000912CB12CA12CA50194010E94990AE62F7C
:10088000B901CA01EA3044F5E05DD801EE938D016B
:10089000232B242B252B79F790E080E0109769F02B
:1008A000FD0101900020E9F73197AF014A1B5B0B76
:1008B000BD0189E592E00E944E02A1960FB6F89420
:1008C000DEBF0FBECDBFDF91CF911F910F91BF90C3
:1008D000AF909F908F900895E95CD7CF1F920F92B1
:1008E0000FB60F9211242F933F938F939F93AF9343
:1008F000BF938091510290915202A0915302B09106
:1009000054023091500223E0230F2D3758F5019601
:10091000A11DB11D20935002809351029093520269
:10092000A0935302B09354028091550290915602C5
:10093000A0915702B09158020196A11DB11D80935C
:10094000550290935602A0935702B0935802BF915C
:10095000AF919F918F913F912F910F900FBE0F906C
:100960001F90189526E8230F0296A11DB11DD2CF26
:100970001F920F920FB60F9211240BB60F922F9366
:100980003F934F935F936F937F938F939F93AF9317
:10099000BF93EF93FF9389E592E00E94C202FF911B
:1009A000EF91BF91AF919F918F917F916F915F91E7
:1009B0004F913F912F910F900BBE0F900FBE0F9054
:1009C0001F9018951F920F920FB60F9211240BB61D
:1009D0000F922F938F939F93EF93FF93E091690270
:1009E000F0916A028081E0916F02F091700282FDC5
:1009F0001DC09081809172028F5F8F73209173026E
:100A0000821741F0E0917202F0E0E75AFD4F958FB6
:100A100080937202FF91EF919F918F912F910F9090
:100A20000BBE0F900FBE0F901F9018958081F2CFD4
:100A3000CF92DF92EF92FF920F931F93E82FF92F3F
:100A400005C0015011092109310961F190819623F6
:100A50009417B9F305C0015011092109310911F1A9
:100A6000908196239413F7CFC12CD12CE12CF12C3B
:100A70000AC08FEFC81AD80AE80AF80A0C151D0533
:100A80002E053F0579F080818623841791F36C2D24
:100A90007D2D8E2D9F2D1F910F91FF90EF90DF9058
:100AA000CF90089560E070E080E090E01F910F919A
:100AB000FF90EF90DF90CF900895CF93DF93109247
:100AC0005C0210925B0288EE93E0A0E0B0E08093BD
:100AD0005D0290935E02A0935F02B093600284E097
:100AE00092E090935A028093590285EC90E09093A3
:100AF00066028093650284EC90E090936802809394
:100B0000670280EC90E090936A028093690281EC26
:100B100090E090936C0280936B0282EC90E0909353
:100B20006E0280936D0286EC90E090937002809349
:100B30006F0210927202109273021092740210925D
:100B4000750284E08093F60283E08093F70280E9E7
:100B500091E09093F9028093F8021092FA021092B9
:100B6000FB021092FC021092FD02E6E2F2E02491F8
:100B7000E0EEF1E08491882399F090E0880F991FCE
:100B8000FC01EE53FE4FA591B491FC01E855FE4FD8
:100B9000859194918FB7F894EC91E22BEC938FBFF1
:100BA000E5E2F2E02491EFEDF1E084918823C1F0D9
:100BB00090E0880F991FFC01EE53FE4FC591D49130
:100BC000FC01E855FE4FA591B4919FB7F894888138
:100BD000E22FE0958E2388838C91E823EC939FBFCE
:100BE000DF91CF910895789484B5826084BD84B5F7
:100BF000816084BD85B5826085BD85B5816085BD18
:100C000080916E00816080936E00109281008091CF
:100C10008100826080938100809181008160809357
:100C20008100809180008160809380008091B1007C
:100C300084608093B1008091B00081608093B000A7
:100C400080919100826080939100809191008160F9
:100C500080939100809190008160809390008091BA
:100C6000A10082608093A1008091A10081608093A7
:100C7000A1008091A00081608093A000809121015B
:100C80008260809321018091210181608093210104
:100C90008091200181608093200180917A0084609E
:100CA00080937A0080917A00826080937A008091AC
:100CB0007A00816080937A0080917A0080688093C6
:100CC0007A001092C100E0916902F0916A0282E01C
:100CD0008083E0916502F09166021082E0916702E4
:100CE000F09168028FEC808310927102E0916D02A6
:100CF000F0916E0286E08083E0916B02F0916C02CD
:100D0000808180618083E0916B02F0916C02808130
:100D100088608083E0916B02F0916C028081806832
:100D20008083E0916B02F0916C0280818F7D8083E3
:100D30000E94820360934C0270934D0280934E0296
:100D400090934F0220E030E040E85FE30E94C80843
:100D500087FF0CC080E090E0A0E8BFE380934C02E6
:100D600090934D02A0934E02B0934F0280914C029B
:100D700090914D02A0914E02B0914F0280931A02C1
:100D800090931B02A0931C02B0931D028093160245
:100D900090931702A0931802B0931902CEE1D2E00B
:100DA0000E94820360934C0270934D0280934E0226
:100DB00090934F0220E030E040E85FE30E94C808D3
:100DC00087FF0CC080E090E0A0E8BFE380934C0276
:100DD00090934D02A0934E02B0934F0280914C022B
:100DE00090914D02A0914E02B0914F028993999338
:100DF000A993B9930E94190282E0C634D80781F6FC
:100E000080914C0290914D02A0914E02B0914F0200
:100E10008093480290934902A0934A02B0934B02F8
:100E20000E9482036B017C0120E030E040E85FE338
:100E30000E94C80887FD2DC1C0924C02D0924D027D
:100E4000E0924E02F0924F02C0904802D0904902C8
:100E5000E0904A02F0904B0220E030E040E251E4A2
:100E6000C701B6010E945C0820914C0230914D02EE
:100E700040914E0250914F020E94C80887FF08C05F
:100E8000C0924C02D0924D02E0924E02F0924F027C
:100E90008091460290914702FC01EE0FFF1FEE0F7A
:100EA000FF1FE25EFD4F40914C0250914D02609158
:100EB0004E0270914F024083518362837383019687
:100EC0008B3091050CF0F2C090934702809346025C
:100ED0000EE112E060E070E0CB01F8012191319168
:100EE000419151918F010E945C08C017D107A9F769
:100EF00020E030E040E251E40E94CD086B017C012B
:100F0000C0924C02D0924D02E0924E02F0924F02FB
:100F100020911A0230911B0240911C0250911D0237
:100F20000E94270A181644F4C0921A02D0921B029B
:100F3000E0921C02F0921D022091160230911702DD
:100F40004091180250911902C701B6010E94C808C9
:100F500087FF08C0C0921602D0921702E0921802D2
:100F6000F09219028090160290901702A090180239
:100F7000B0901902A5019401C701B6010E945B0857
:100F80006B017C01A501940160911A0270911B0212
:100F900080911C0290911D020E945B089B01AC0194
:100FA000C701B6010E94CD0820E030E04EEF52E4C8
:100FB0000E942C0A0E943F096B01770FEE08FF0880
:100FC0004AE0C701B601F7FE0DC06DE289E592E087
:100FD0000E94E40266277727CB016C197D098E09F0
:100FE0009F094AE00E94200442E050E062E172E082
:100FF00089E592E00E944E0280904C0290904D0252
:10100000A0904E02B0904F02C0901A02D0901B02E6
:10101000E0901C02F0901D02A7019601C501B401E9
:101020000E945B082FE632E143E85AE30E942C0A53
:10103000A70196010E945C0860931A0270931B023C
:1010400080931C0290931D02C0901602D09017024C
:10105000E0901802F0901902A7019601C501B401B1
:101060000E945B082FE632E143E85AE30E942C0A13
:10107000A70196010E945C08609316027093170204
:1010800080931802909319020E9419020E94510342
:10109000B7CE80E090E0A0E8BFE380934C0290934D
:1010A0004D02A0934E02B0934F02CECE1092470253
:1010B000109246020DCF5058BB27AA270E947308F2
:1010C0000C94ED090E94DF0938F00E94E60920F037
:1010D00039F49F3F19F426F40C94DC090EF4E095E2
:1010E000E7FB0C94D609E92F0E94FE0958F3BA17C2
:1010F000620773078407950720F079F4A6F50C942E
:10110000200A0EF4E0950B2EBA2FA02D0B01B90189
:1011100090010C01CA01A0011124FF27591B99F06D
:10112000593F50F4503E68F11A16F040A22F232F79
:10113000342F4427585FF3CF469537952795A795C9
:10114000F0405395C9F77EF41F16BA0B620B730B70
:10115000840BBAF09150A1F0FF0FBB1F661F771FE1
:10116000881FC2F70EC0BA0F621F731F841F48F496
:10117000879577956795B795F7959E3F08F0B0CF1F
:101180009395880F08F09927EE0F97958795089506
:101190000E94B20908F481E008950E94E1080C94CD
:1011A000ED090E94E60958F00E94DF0940F029F499
:1011B0005F3F29F00C94D60951110C94210A0C942C
:1011C000DC090E94FE0968F39923B1F3552391F3DA
:1011D000951B550BBB27AA2762177307840738F0A6
:1011E0009F5F5F4F220F331F441FAA1FA9F335D003
:1011F0000E2E3AF0E0E832D091505040E695001CB7
:10120000CAF72BD0FE2F29D0660F771F881FBB1F70
:10121000261737074807AB07B0E809F0BB0B802D4E
:10122000BF01FF2793585F4F3AF09E3F510578F07A
:101230000C94D6090C94210A5F3FE4F3983ED4F352
:10124000869577956795B795F7959F5FC9F7880F4E
:10125000911D9695879597F90895E1E0660F771FA0
:10126000881FBB1F621773078407BA0720F0621B31
:10127000730B840BBA0BEE1F88F7E09508950E945C
:1012800046096894B1110C94210A08950E94060A37
:1012900088F09F5798F0B92F9927B751B0F0E1F037
:1012A000660F771F881F991F1AF0BA95C9F714C0E7
:1012B000B13091F00E94200AB1E008950C94200A08
:1012C000672F782F8827B85F39F0B93FCCF3869520
:1012D00077956795B395D9F73EF49095809570957D
:1012E00061957F4F8F4F9F4F0895E89409C097FBFA
:1012F0003EF490958095709561957F4F8F4F9F4FED
:101300009923A9F0F92F96E9BB279395F695879530
:1013100077956795B795F111F8CFFAF4BB0F11F4F3
:1013200060FF1BC06F5F7F4F8F4F9F4F16C088239A
:1013300011F096E911C0772321F09EE8872F762FD0
:1013400005C0662371F096E8862F70E060E02AF011
:101350009A95660F771F881FDAF7880F96958795FD
:1013600097F90895990F0008550FAA0BE0E8FEEFD2
:1013700016161706E807F907C0F012161306E40759
:10138000F50798F0621B730B840B950B39F40A2652
:1013900061F0232B242B252B21F408950A2609F430
:1013A000A140A6958FEF811D811D089597F99F6734
:1013B00080E870E060E008959FEF80EC08950024DD
:1013C0000A941616170618060906089500240A94AA
:1013D00012161306140605060895092E0394000C30
:1013E00011F4882352F0BB0F40F4BF2B11F460FFBF
:1013F00004C06F5F7F4F8F4F9F4F089557FD9058E8
:10140000440F551F59F05F3F71F04795880F97FBC8
:10141000991F61F09F3F79F0879508951216130682
:101420001406551FF2CF4695F1DF08C016161706B1
:101430001806991FF1CF86957105610508940895E6
:10144000E894BB2766277727CB0197F908950E9478
:10145000B20908F48FEF08950E943F0A0C94ED0939
:101460000E94DF0938F00E94E60920F0952311F070
:101470000C94D6090C94DC0911240C94210A0E94C6
:10148000FE0970F3959FC1F3950F50E0551F629FC1
:10149000F001729FBB27F00DB11D639FAA27F00DCD
:1014A000B11DAA1F649F6627B00DA11D661F829FF4
:1014B0002227B00DA11D621F739FB00DA11D621FD9
:1014C000839FA00D611D221F749F3327A00D611DF6
:1014D000231F849F600D211D822F762F6A2F1124D8
:1014E0009F5750409AF0F1F088234AF0EE0FFF1F0B
:1014F000BB1F661F771F881F91505040A9F79E3F62
:10150000510580F00C94D6090C94210A5F3FE4F356
:10151000983ED4F3869577956795B795F795E795B7
:101520009F5FC1F7FE2B880F911D9695879597F9C0
:101530000895A1E21A2EAA1BBB1BFD010DC0AA1F14
:10154000BB1FEE1FFF1FA217B307E407F50720F02C
:10155000A21BB30BE40BF50B661F771F881F991FA7
:101560001A9469F760957095809590959B01AC01F0
:10157000BD01CF010895EE0FFF1F881F8BBF07909D
:0A158000F691E02D1994F894FFCFC6
:10158A0000000000E4024E027B023103AC028A0230
:06159A009E020D0A000094
:00000001FF
